:100000000C942A000C943C000C943C000C943C0092
:100010000C943C000C943C000C943C000C943C0070
:100020000C943C000C943C000C943C000C943C0060
:100030000C943C000C943C000C943C000C943C0050
:100040000C943C000C943C000C943C000C943C0040
:100050000C943C0011241FBECFE5D4E0DEBFCDBF21
:1000600020E0A0E6B0E001C01D92A238B207E1F79F
:100070000E9457010C94A4010C940000CF93DF93CD
:100080001F92CDB7DEB728E030E002C0220F331F49
:100090008A95E2F725BB87EE93E00197F1F700C060
:1000A00000000000000083B38F70898389810F9066
:1000B000DF91CF910895CF93DF9300D000D000D08F
:1000C000CDB7DEB71E821D8281E090E00E943E0027
:1000D000898382E090E00E943E008A8383E090E082
:1000E0000E943E008B8384E090E00E943E008C835F
:1000F00089814A812B813C8190E0982F88279295B5
:10010000907F942B832B40E1249F90011124822B1C
:10011000932B9E838D8315BA8D819E8126960FB673
:10012000F894DEBF0FBECDBFDF91CF910895CF937E
:10013000DF930E945B00EC018FE39CE90197F1F7EC
:1001400000C000000E945B008C239D232091600072
:10015000309161002095309590936100809360000C
:1001600082239323DF91CF910895CF93DF9300D023
:1001700000D0CDB7DEB71A82198229813A812031A9
:1001800031050CF040C021E030E03C832B832B8113
:100190003C8149815A8102C0220F331F4A95E2F700
:1001A0003C832B832B813C8128233923232BB1F4DF
:1001B00041E050E01BC05C834B832B813C81698113
:1001C0007A8102C0220F331F6A95E2F73C832B83AA
:1001D0002B813C8128233923232B41F0E981FA81AB
:1001E000EE0FFF1FEE59FF4F80810EC029813A812B
:1001F0002F5F3F4F3A83298329813A81203131058E
:10020000D4F281E001C081E00F900F900F900F9029
:10021000DF91CF910895E2E6F0E08AE290E09183E9
:10022000808380E390E09383828383E290E09583F0
:10023000848384E490E09783868387E390E09187CA
:10024000808788E390E09387828789E390E09587B1
:10025000848783E490E09787868784E390E0918B9E
:10026000808B85E390E0938B828B86E390E0958B87
:10027000848B82E490E0978B868B81E390E0918F72
:10028000808F82E390E0938F828F83E390E0958F5D
:10029000848F81E490E0978F868F08950E94970065
:1002A000009719F00E94B500089580E00895CF935B
:1002B000DF9300D0CDB7DEB78FEF87BB80EF84BB75
:1002C0000E940B0101E0F12C1FEF0E944E01898377
:1002D00089818823D1F30E944E018A838A818823F1
:1002E000D1F399812A81802F933409F08F2D8823AF
:1002F00091F0802F233309F08F2D882361F018BBF4
:100300002FEF37EA41E6215030404040E1F700C08E
:10031000000018BADACF84E090E018BB2FEF34E386
:100320004CE0215030404040E1F700C0000018BAD6
:100330002FEF34E34CE0215030404040E1F700C063
:0C0340000000019751F7C1CFF894FFCFE7
:00000001FF
