:020000020000FC
:020000001CC022
:0200200063C0BB
:10003800D0C011272227332744E00FE50DBF04E085
:100048000EBF0FEF07BB0FEF01BB00EF04BBCC27C0
:10005800CED0DCD0789484E1DED08030E1F38F9389
:1000680013951230C1F73F912F91233431F5333373
:1000780021F5F89411278BD187E575D185E473D1E3
:100088008CE471D183E46FD18FE46DD18DE46BD1B1
:1000980085E469D180E267D183E465D183E363D1E4
:1000A80080EA9FE008B30027006808BBADD108B319
:1000B8000F7708BB6CD17894CECF112784EF91E0ED
:1000C80008B3006808BBA0D184EF91E008B30F77AC
:1000D80008BB9AD14A95403089F744E058D1BBCF44
:1000E8000FB70F938F9306B180E4082B06B98AE007
:1000F80090E094D154B165B1603059F46D3C48F446
:100108003FC08CEF8DBD83EF8CBD8F910F910FBFDA
:1001180018953DD187E427D181E425D183E523D102
:1001280080E221D184E41FD185E41DD184E51BD16F
:1001380085E419D183E417D184E515D185E413D179
:1001480084E411D1CF3FB9F0623030F4613048F423
:100158005D3E60F4CFEFD5CF08B300780F6708BBDA
:10016800F9CF08B300780F6308BBF4CF08B3007861
:100178000F6108BBEFCF08B3007808BBCC27C1CF0D
:1001880006D183E4F0D08CE4EED085E4ECD081E4B1
:10019800EAD082E5E8D05D3A40F45A3858F4503352
:1001A80070F4503088F4CFEFACCF08B300780F600C
:1001B80008BBF9CF08B30078076008BBF4CF08B3D1
:1001C8000078036008BBEFCF08B30078016008BB74
:1001D800EACF0FB70F938F939F938AE090E01ED1D9
:1001E80054B165B19F918F910F910FBF18950FB7BB
:1001F8000F938F9384E089BF85E08EBD8CEF8DBD12
:1002080083EF8CBD8F910F910FBF089580E487B95C
:100218008FE886B908956F937F939F93AF93BF93A9
:10022800BFB7BF932CD049D0BF91BFBFBF91AF918B
:100238009F917F916F91089595BB8F939F9384EFC2
:1002480091E0ECD09F918F910000000083B38F70F4
:100258000895AF93BF9390E1EFDF8295B82F90E2B6
:10026800EBDFB80F90E4E8DF8295A82F90E8E4DF91
:10027800A80FCD01AA27A5BBBF91AF9108956F9391
:100288007F93AF93BF93E5DF8F939F938FE090E0C9
:10029800BBD0DFDF7F916F9186239723A0E6B0E084
:1002A8007D916C918C939E9370956095862397238E
:1002B800BF91AF917F916F910895AF93BF93DC0188
:1002C8008AE2A0FD2FC080E3A1FD2CC083E2A2FD3D
:1002D80029C084E4A3FD26C087E3A4FD23C088E3E6
:1002E800A5FD20C089E3A6FD1DC083E4A7FD1AC0B3
:1002F80084E3B0FD17C085E3B1FD14C086E3B2FD09
:1003080011C082E4B3FD0EC081E3B4FD0BC082E3EB
:10031800B5FD08C083E3B6FD05C081E4B7FD02C0A2
:10032800882700C0BF91AF9108958F939F9380E76E
:1003380097E174D09F918F918F9390B39F70807F36
:10034800890F82BB939A93988F939F9380E797E145
:1003580065D09F918F918F918295807F890F82BB05
:10036800939A939808958F939F93929ADEDF8BE2E6
:1003780090E054D09F918F9108958F939F93929876
:10038800D4DF87E290E04AD09F918F9108958F93B0
:100398009F9388E290E038D080E382BB939A939849
:1003A80087E290E03BD08F939F9388EE93E036D01E
:1003B8009F918F9180E382BB939A939887E290E014
:1003C8002DD08F939F9388EE93E028D09F918F91A3
:1003D80080E282BB939A939887E290E01FD08F9334
:1003E8009F9388EE93E01AD09F918F9188E2C5DFA2
:1003F8008CE0C3DF81E0C1DF8AEF95E00FD086E0B3
:10040800BCDF9F918F9108958F939F9386EE93E021
:1004180005D09F918F910197B9F708950197000032
:0A042800000000000000D1F7089565
:00000001FF
