:100000000C942A000C943C000C943C000C943C0092
:100010000C943C000C943C000C943C000C943C0070
:100020000C94D4010C943C000C943C000C943C00C7
:100030000C943C000C943C000C9411030C943C0078
:100040000C943C000C943C000C943C000C943C0040
:100050000C943C0011241FBECFE5D4E0DEBFCDBF21
:1000600020E0A0E6B0E001C01D92A338B207E1F79E
:100070000E941B030C9492030C940000CF93DF9317
:100080001F92CDB7DEB728E030E002C0220F331F49
:100090008A95E2F725BB87EE93E00197F1F700C060
:1000A00000000000000083B38F70898389810F9066
:1000B000DF91CF910895CF93DF9300D000D000D08F
:1000C000CDB7DEB71E821D8281E090E00E943E0027
:1000D000898382E090E00E943E008A8383E090E082
:1000E0000E943E008B8384E090E00E943E008C835F
:1000F000898190E09C01322F22273295307F9A81AE
:10010000892F90E0982F8827822B932B2B8140E119
:10011000249F90011124822B932B2C81822B9E8370
:100120008D8315BA8D819E8126960FB6F894DEBF19
:100130000FBECDBFDF91CF910895CF93DF930E9483
:100140005B00EC018FE39CE90197F1F700C0000030
:100150000E945B008C239D23209160003091610000
:1001600020953095909361008093600082239323C3
:10017000DF91CF910895CF93DF9300D000D0CDB71A
:10018000DEB71A82198223C021E030E03C832B8342
:100190002B813C8149815A8102C0220F331F4A952D
:1001A000E2F73C832B832B813C8128233923232BAB
:1001B00041F0E981FA81EE0FFF1FED59FF4F808179
:1001C0000CC029813A812F5F3F4F3A8329832981CF
:1001D0003A8120313105C4F281E00F900F900F90E9
:1001E0000F90DF91CF910895E3E6F0E08AE290E08E
:1001F0009183808380E390E09383828383E290E025
:100200009583848384E490E09783868387E390E0FA
:100210009187808788E390E09387828789E390E0E5
:100220009587848783E490E09787868784E390E0CE
:10023000918B808B85E390E0938B828B86E390E0BB
:10024000958B848B82E490E0978B868B81E390E0A2
:10025000918F808F82E390E0938F828F83E390E091
:10026000958F848F81E490E0978F868F08950E9408
:100270009D00009719F00E94BB00089580E008954A
:1002800090E1899F9001112482958F70822B0895AF
:10029000CF93EFEDFEE23197F1F700C00000C0B35D
:1002A000CF70982F907F9C0F92BB92B3986092BBB7
:1002B00092B3977F92BBEFEDFEE23197F1F700C06A
:1002C00000000E944001807FC80FC2BB82B38860DB
:1002D00082BB82B3877F82BBCF91089592B3946033
:1002E00092BB0E94480182E78A95F1F700C0089509
:1002F00092B39B7F92BB0E94480188E68A95F1F7F2
:1003000008952FEF89EF90E0215080409040E1F771
:1003100000C0000081E090E012C020E322BB22B3C5
:10032000286022BB22B3277F22BBE8E6EA95F1F7DB
:10033000EFECF7E03197F1F700C000000196833051
:1003400091055CF380E282BB82B3886082BB82B39A
:10035000877F82BBF8E6FA95F1F78FEC97E001977B
:10036000F1F700C0000088E20E9478018CE00E9452
:10037000780181E00E947801E3EFFBE03197F1F72B
:1003800000C0000086E00E94780108958FE886B9D9
:1003900080E487B9089583EF9CEF9DBD8CBD85E017
:1003A0008EBD84E089BF08951F920F920FB60F9201
:1003B00011242F933F934F935F936F937F938F936A
:1003C0009F93AF93BF93CF93DF93EF93FF9386B148
:1003D000806486B98AE18A95F1F700C0F894C4B1C7
:1003E0002C2F30E085B1C82FD0E0DC2FCC277894BB
:1003F000C20FD31FCD3CD1050CF491C00E948101E6
:1004000087E40E946E0181E40E946E0183E50E94F0
:100410006E0180E20E946E0184E40E946E0185E418
:100420000E946E0184E50E946E0185E40E946E01C7
:1004300083E40E946E0184E50E946E0185E40E94BF
:100440006E0184E40E946E01809162008F3F31F45E
:100450001092620088B3807888BBCCC0CB3FD105B6
:1004600054F488B3807888BB88B3816088BB8FEFF1
:1004700080936200BFC0C93181E0D80754F488B3CB
:10048000807888BB88B3836088BB8FEF80936200DD
:10049000B1C0CD3281E0D80754F488B3807888BBEE
:1004A00088B3876088BB8FEF80936200A3C0C13997
:1004B00081E0D80754F488B3807888BB88B38F6014
:1004C00088BB8FEF8093620095C0C33C81E0D80762
:1004D00054F488B3807888BB88B38F6188BB8FEF72
:1004E0008093620087C0C53F81E0D80754F488B389
:1004F000807888BB88B38F6388BB8FEF809362005E
:1005000079C0C132D3400CF075C088B3807888BB05
:1005100088B38F6788BB8FEF809362006BC00E94A7
:10052000810183E40E946E018CE40E946E0185E4E7
:100530000E946E0181E40E946E0182E50E946E01BC
:10054000C131D10554F488B3807888BB88B3816009
:1005500088BB8FEF809362004DC0C932D10554F43F
:1005600088B3807888BB88B3836088BB8FEF809323
:10057000620040C0C536D10554F488B3807888BB8A
:1005800088B3876088BB8FEF8093620033C0C93720
:10059000D10554F488B3807888BB88B38F6088BB5A
:1005A0008FEF8093620026C0C739D10554F488B319
:1005B000807888BB88B38F6188BB8FEF809362009F
:1005C00019C0C53BD10554F488B3807888BB88B383
:1005D0008F6388BB8FEF809362000CC0CE3CD10547
:1005E0004CF488B3807888BB88B38F6788BB8FEF63
:1005F0008093620083EF9CEF9DBD8CBDFF91EF91D6
:10060000DF91CF91BF91AF919F918F917F916F912A
:100610005F914F913F912F910F900FBE0F901F90C0
:1006200018951F920F920FB60F9211240F900FBEC4
:100630000F901F9018958FEF87BB90EF94BB81BBF5
:100640000E94F4000E94C6010E94CB010E94810119
:1006500078940E943701D82F8823D9F30E9437015C
:10066000C82F8823D9F391E0D33409F090E081E0DA
:10067000C33309F080E0892309F44EC0F8940E9446
:10068000810187E50E946E0185E40E946E018CE481
:100690000E946E0183E40E946E018FE40E946E014D
:1006A0008DE40E946E0185E40E946E0180E20E944A
:1006B0006E018D2F0E946E018C2F0E946E0118BA60
:1006C00088B3806888BB2FEF47EA81E6215040401D
:1006D0008040E1F700C0000088B38F7788BB789432
:1006E000B8CF88B3806888BB9FEF44E38CE091501B
:1006F00040408040E1F700C0000088B38F7788BB9E
:100700009FEF44E38CE0915040408040E1F700C00F
:1007100000002F5F3F4F02C020E030E02430310561
:0807200004F397CFF894FFCF1A
:00000001FF
